:020000040800F2
:1000000060C70020F102000871200008891B000869
:100010006F200008130A00089D2700080000000058
:10002000000000000000000000000000390200088D
:100030005D1A0008000000008D0200080924000875
:100040000B0300080B0300080B0300080B03000858
:100050000B0300080B0300080B0300080B03000848
:100060000B0300080B0300080B0300080B03000838
:100070000B0300080B0300080B0300080B03000828
:10008000A51700080B0300080B0300080B0300086A
:10009000010B00080B0300080B0300080B0300080A
:1000A0000B0300080B0300080B0300080B030008F8
:1000B0000B0300080B0300080B0300080B030008E8
:1000C0000B0300080B0300080B0300080B030008D8
:1000D0000B0300080B0300080B0300080B030008C8
:1000E0000B0300080B0300080B0300080B030008B8
:1000F0000B0300080B0300080B0300080B030008A8
:100100000B0300080B0300080B0300080B03000897
:10011000792400080B0300080B0300080B030008F8
:100120000B0300080B0300080B0300080B03000877
:100130000B0300080B0300080B0300080B03000867
:10014000050D00080B0300080B0300080B03000853
:100150000B0300080B0300080B0300080B03000847
:100160000B0300080B0300080B0300080B03000837
:100170000B0300080B0300080B0300080B03000827
:100180000B0300080B03000800F002F800F044F82D
:100190000AA090E8000C82448344AAF10107DA45E2
:1001A00001D100F039F8AFF2090EBAE80F0013F0F0
:1001B000010F18BFFB1A43F0010318477C720000BF
:1001C0009C720000103A24BF78C878C1FAD8520750
:1001D00024BF30C830C144BF04680C6070470000C1
:1001E0000023002400250026103A28BF78C1FBD840
:1001F000520728BF30C148BF0B607047642900F028
:10020000F380732900F04083002070471FB506F08B
:10021000A7FA1FBD10B510BD00F0D0FB1146FFF7C7
:10022000F5FF03F0F2F900F0EEFB03B4FFF7F2FF85
:1002300003BC02F0BBFA00002A4B19680868B0E85A
:10024000F04F80F30988BFF36F8F4FF0000080F309
:10025000118870470000000006480068006880F3BD
:10026000088862B661B6BFF34F8FBFF36F8F00DFB0
:1002700000BF00BF08ED00E0DFF80C00016841F4AA
:1002800070010160704700BF88ED00E0EFF3098066
:10029000BFF36F8F134B1A681EF0100F08BF20EDCD
:1002A000108A20E9F04F106008B44FF0500080F33E
:1002B0001188BFF34F8FBFF36F8F05F04BF94FF0ED
:1002C000000080F3118808BC19680868B0E8F04F96
:1002D0001EF0100F08BFB0EC108A80F30988BFF33E
:1002E0006F8F7047AC000020EFF30580704700006F
:1002F0000948804709480047FEE7FEE7FEE7FEE7BA
:10030000FEE7FEE7FEE7FEE7FEE7FEE704480549F5
:10031000054A064B704700001D24000889010008AB
:1003200060C1002060C7002060C3002060C30020BF
:10033000704710B54C1084EA530404D54042C1F113
:10034000000138BF491E1B4204D55242C3F10003CD
:1003500038BF5B1E00F09DF914F0804F04D040427E
:10036000C1F1000138BF491E14F0004F04D05242C1
:10037000C3F1000338BF5B1E10BD00000FB4044979
:1003800010B503AA029800F083FA10BC5DF814FBC4
:100390009800002070B50C460546012A05D0287843
:1003A000800600D5EA69002302E0012305E05B1C1A
:1003B000934202D2E05C0028F9D1A869E618C01A7D
:1003C000A861286A184428622846AFF3008004E038
:1003D000D5E9012114F8010B9047B442F8D328461F
:1003E000AFF3008070BD00002DE9F0410646002407
:1003F00010687529314616A510D0AFF3008000288B
:1004000002DA404213A507E031688A0701D512A538
:1004100002E0490704D511A5012401E0AFF30080F3
:1004200000210A2206F1240709E0B0FBF2FCB0FB30
:10043000F2F302FB1C00303078541846491C0028A7
:10044000F3D123462A463046BDE8F04100F098B982
:10045000000000002D0000002B0000002000000024
:100460002DE9F05F894604464FF0000ADFF824B119
:10047000FB44C0F820A02046E168884700287DD0D2
:10048000252806D0D4E901219047206A401C20622B
:10049000F1E700255F462046E168884720280646A8
:1004A00007DB312E05D2B81910F8200C08B105432E
:1004B000F1E7A80701D525F00405C4F81CA0002722
:1004C000C4F818A02A2E09D0304602F068F938B3D3
:1004D00004EB8708303EC8F8186019E059F8041B8F
:1004E000204604EB87029161E1688847012F0646A8
:1004F00018D1E069002820DA25F020051DE0D8F8A1
:10050000180000EB800006EB40003038C8F81800F7
:100510002046E1688847064602F041F90028EED1FE
:10052000012F0AD02E2E08D12046E16888477F1C73
:100530000646022F45F02005C4DBA069002803DA37
:10054000404245F00105A061E80701D025F0100503
:10055000A6B1A6F14100192802D8203645F400655D
:100560004A463146204625604D46FFF747FE60B1BA
:10057000012807D0ED1D25F0070000E007E000F19D
:10058000080978E705F1040975E730467AE7206A3B
:10059000BDE8F09F626F000040EA010310B59B07C1
:1005A0000FD1042A0DD310C808C9121F9C42F8D0DD
:1005B00020BA19BA884201D9012010BD4FF0FF308E
:1005C00010BD1AB1D30703D0521C07E0002010BDA4
:1005D00010F8013B11F8014B1B1B07D110F8013B30
:1005E00011F8014B1B1B01D1921EF1D1184610BD11
:1005F000032A40F2308010F0030C00F0158011F84F
:10060000013BBCF1020F624498BF11F801CB00F826
:10061000013B38BF11F8013BA2F1040298BF00F87A
:1006200001CB38BF00F8013B11F0030300F0428119
:10063000083AC0F0088051F8043B083A51F804CB5E
:10064000A0E80810F5E7121D5CBF51F8043B40F824
:10065000043BAFF30080D20724BF11F8013B11F82F
:1006600001CB48BF11F8012B24BF00F8013B00F873
:1006700001CB48BF00F8012B704702F0FF0343EAAB
:10068000032242EA024200F049B9704770477047BE
:10069000704753EA020C00F069802DE9F04B4FF0EF
:1006A0000006002B1FBFB3FA83F503FA05F424FA02
:1006B00005F65E4012BF1643B2FA82F502FA05F45F
:1006C000C5F120051EBF22FA05FC44EA0C042035C2
:1006D00056EA044C4FEA144418BF641C4FF000085B
:1006E0004FF00009904271EB030C39D3002919BF78
:1006F000B1FA81F701FA07F6B0FA80F700FA07F6C7
:10070000C7F120071EBF20FA07FC46EA0C06203777
:10071000B6FBF4FCA7EB0507103F07F01F0BCBF16E
:1007200020060CFA0BFB2CFA06F644BFB346002653
:10073000202FA4BF5E464FF0000B5BEA060C08BFFB
:100740004FF0010B19EB0B09ABFB027C48EB0608E1
:10075000C01B06FB02CC0BFB03CC71EB0C01C1E709
:100760000B46024641464846BDE8F08B13B54FF0B4
:1007700000004FF00001AFF30080BDE81C4070475F
:100780002DE9F0470D4699469246044600F12408AB
:100790000168880604D5E06921F01001216000E0BD
:1007A0000120A84201DD471B00E00027A1697A195A
:1007B00002EB0900081AA0612078C00602D4204686
:1007C000AFF30080002608E0D4E901211AF8060002
:1007D0009047206A401C761C20624E45F4DB20784E
:1007E000C0060AD52046AFF3008006E0D4E9012117
:1007F00030209047206A401C2062381EA7F1010774
:10080000F4DC07E0D4E9012118F805009047206ADC
:10081000401C2062281EA5F10105F3DC2046AFF341
:1008200000802078000602D50220BDE8F087012074
:10083000FBE7000001694A1C02610878704700B5B7
:100840008FB0CDE901310021059105497944CDE909
:10085000031011466846FFF703FE0FB000BD00000D
:10086000E5FFFFFF10B5436913B1AFF3008001E06E
:10087000FFF790FD012010BD127800F124010A70ED
:1008800000224A700122EDE711684FF0FF32E9E7DC
:10089000074B70B50D467B44FFF7D1FF0446284651
:1008A00000F05CF810B14FF0FF3070BD204670BD15
:1008B0005328000010B5203AC0F00B80B1E8185062
:1008C000203AA0E81850B1E81850A0E81850BFF43A
:1008D000F5AF5FEA027C24BFB1E81850A0E81850D9
:1008E00044BF18C918C0BDE810405FEA827C24BF2D
:1008F00051F8043B40F8043B08BF7047D20728BFBB
:1009000031F8023B48BF11F8012B28BF20F8023B09
:1009100048BF00F8012B70474FF000020429C0F0D7
:10092000128010F0030C00F01F80CCF1040CBCF11D
:10093000020F18BF00F8012BA8BF20F8022BA1EB73
:100940000C0100F011B85FEAC17C24BF00F8012B54
:1009500000F8012B48BF00F8012B7047007B00F026
:10096000800070474FF0000200B51346944696464B
:10097000203922BFA0E80C50A0E80C50B1F12001B2
:10098000BFF4F7AF090728BFA0E80C5048BF0CC060
:100990005DF804EB890028BF40F8042B08BF7047BE
:1009A00048BF20F8022B11F0804F18BF00F8012B30
:1009B000704700000048704700C100207546FFF7EF
:1009C000F9FFAE4605006946534620F0070085460C
:1009D00018B020B5FFF79AFCBDE820404FF00006A4
:1009E0004FF000074FF000084FF0000B21F0070117
:1009F000AC46ACE8C009ACE8C009ACE8C009ACE85A
:100A0000C0098D4670470446AFF300802046FFF7CB
:100A10000CFCFEE72DE9F043894680468BB00121AE
:100A2000082001F0EFFB0121480601F0F7FB324CF2
:100A300009220021204601F04EF80922012120461A
:100A400001F049F8022103268DF82410089608A920
:100A5000204601F004F8294F384600F017FA68469E
:100A600000F0A7FB00248DF806408DF807408DF8B4
:100A7000084008208DF809408DF802408DF80400E8
:100A80008DF80A4001258DF803408DF80B508DF844
:100A90000560ADF800606946384600F0CFFA8DF881
:100AA00016408DF817408DF81850ADF80C40ADF891
:100AB0001040ADF80E40ADF81240ADF814408DF87E
:100AC000195003A800F0F8F914208DF81C008DF8D7
:100AD0001D808DF81E908DF81F5007A801F0CAFAEE
:100AE00001220221384600F0A1FA0221384600F026
:100AF00091F90BB0BDE8F083000C024000640040A7
:100B000010B5304C0221204600F03CFA002857D0A6
:100B10000221204600F07EF92B49204600F062F9C0
:100B20002A4A0021204600F0FDFA28482849026898
:100B3000A2F20122062A43D2DFE802F0030D1721B8
:100B40002B350A8842F001020A80B0F80D0040BA45
:100B500001B2002030E00A8842F002020A80B0F8B8
:100B60000D0040BA01B2012026E00A8842F00402DA
:100B70000A80B0F80D0040BA01B202201CE00A88D9
:100B800042F008020A80B0F80D0040BA01B203201A
:100B900012E00A8842F010020A80B0F80D0040BA54
:100BA00001B2042008E00A8842F020020A80B0F86E
:100BB0000D0040BA01B20520BDE8104001F0F8BBBD
:100BC00010BD000000640040080000322001002039
:100BD0005A00002030B40D4C4FF4007525600025FC
:100BE000257265720825A572050AE5722073080A48
:100BF0006073A173100AE0732274180A6074A374FE
:100C0000214630BC024800F0E4BA00003401002064
:100C10000064004070B50D4604468AB001210220F0
:100C200001F0F0FA0121880601F0F8FA334E0922AA
:100C30000C21304600F04FFF09220D21304600F014
:100C40004AFF4FF44050089002208DF8240008A974
:100C5000304600F004FF40208DF81C008DF81D4048
:100C60008DF81E5001258DF81F5007A801F002FADB
:100C7000234E304600F00AF9684600F09AFA002444
:100C80008DF806408DF8074008208DF808408DF853
:100C900002408DF8040003218DF809408DF80340CF
:100CA0008DF80A408DF80510ADF800108DF80B5046
:100CB0006946304600F0C2F90E208DF816008DF816
:100CC00017408DF81850ADF80C40ADF81040ADF855
:100CD0000E40ADF81240ADF814408DF8195003A83D
:100CE00000F0EAF801220221304600F09FF90221CB
:100CF000304600F08FF80AB070BD000000040240DA
:100D00000068004010B51F4C0221204600F03AF95F
:100D1000002825D01C48018841F0020101800221F1
:100D2000204600F077F81949204600F05BF8184A91
:100D30000021204600F0F6F9164A0021204600F076
:100D4000F1F9134A14491068A0F50070013808D071
:100D500001280AD0022803D1088840F48060088066
:100D600010BD088840F48070F9E7088840F40070EE
:100D70000880B2F80D00BDE8104040BA01B2002072
:100D800001F0ACBA006800405800002008000032B2
:100D900020010020980400205A00002030B440F2C6
:100DA000FF14029DA04200D0641C0C480460002483
:100DB00004724472082484720C0AC4720173110A0A
:100DC00041738273190AC1730374290A41748574CB
:100DD000014630BC024800F0FCB90000340100209C
:100DE000006800400A4A914202D1002181617047A7
:100DF000C1F313028B0101D5C26070474B0101D5CD
:100E000002617047090101D58260704742607047F6
:100E10007000F03030B5082310240422B1F5007FB3
:100E20001DD010DC202929D007DC012921D004297C
:100E300022D0082900D1C46030BD402920D0B1F5AE
:100E4000807FF9D10BE00025B1F5004F06D008DC1A
:100E5000B1F5806F03D0B1F5006FEDD185614260CF
:100E600030BDB1F5803F0DD0B1F5003FF8D1446001
:100E700030BD0549816030BDC36030BD036130BD08
:100E8000046130BD436030BD01010100094910B566
:100E900088424FF0010101D14C0601E04FF080641F
:100EA000204601F0C7F92046BDE81040002101F0BE
:100EB000C1B9000000640040F0B5827A2F4D0121D5
:100EC00091402A6842F001022A602C4E1C3632689A
:100ED0008A433260294A047B294B0C32A4B9146836
:100EE0008C4314604488C78844EA0744877A03EB3C
:100EF000C707C7F840460488878844EA0744877ACA
:100F000003EBC707C7F84446047B012C12D11468D1
:100F10000C431460847A026803EBC4044FEA324243
:100F2000C4F84026847A426803EBC4034FEA324295
:100F3000C3F84426114AC37A121D002B136806D049
:100F40000B4313600D4A0389143213B104E08B4341
:100F5000F7E713688B4313600389012B02D11368F1
:100F60000B431360407B012802D130680843306096
:100F7000286820F001002860F0BD000000660040F5
:100F8000006000400246002053690B424AD0B1F590
:100F9000807F3BD013DC08292ED007DC012926D026
:100FA000022927D004293DD1D0682BE0102925D073
:100FB000202926D0402935D11069102130E0B1F523
:100FC000004F2BD00BDCB1F5007F22D0B1F5806F44
:100FD00022D0B1F5006F25D19069702120E0B1F5E4
:100FE000803F11D0B1F5003F1CD15068E5E7906813
:100FF0000D4915E0D06802E0D068DEE710690321F2
:101000000EE0106908210BE05068FBE790690121B0
:1010100006E09069022103E0906900E05068042135
:1010200000F030BB7047000001010100002A426956
:1010300001D00A4300E08A434261704710B503685B
:10104000002223F002030360036843F001030360FE
:101050004FF6FF7300E0521C4468E40701D19A4246
:10106000F9D14268D2073ED08A79012A02683CD081
:1010700022F080020260CA79012A026838D022F088
:10108000400202600A7A012A026834D022F020026B
:1010900002604A7A012A026830D022F0100202600F
:1010A0008A7A012A02682CD022F008020260CA7AE9
:1010B000012A026828D022F0040202608A78CC78E3
:1010C000920742EA04620C7942EA04424C790988A8
:1010D00042EA0452491E0A43C261016821F001013B
:1010E0000160002114E0002010BD42F08002C1E741
:1010F00042F04002C5E742F02002C9E742F0100288
:10110000CDE742F00802D1E742F00402D5E7491CDE
:101110004268D20701D09942F9D14068C007E2D1B4
:10112000012010BD10B500EB0113D3F8B04114F04D
:1011300004041472D3F8B04133D0E4085460D3F8F7
:10114000B04104F002045472D3F8B44104F00F0427
:101150009472D3F8B441240AD474D3F8B841D47249
:10116000D3F8B841240A1473D3F8B841240C54734B
:10117000D3F8B841240E9473D3F8BC41D473D3F898
:10118000BC41240A1474D3F8BC41240C5474D3F821
:10119000BC311B0E937439B1016941F0200101612A
:1011A00010BD640D1460CAE7C16841F02001C16040
:1011B00010BD00218171C171017241728172C172D1
:1011C0008170C170032101710221417101210180EF
:1011D000704730B50246002093685B0108D49068E0
:1011E000000101D5012003E09068C00037D502203E
:1011F00002EB0012D2F8803103F00103C2F8803113
:101200000B7A73B3D2F880414D681C434B7A43EAA2
:10121000C5031C43C2F880418B7A03F00F038B7225
:10122000D2F8843123F00F03C2F88431D2F884312C
:101230008C7A2343C2F88431CB7ACC6843EA042306
:10124000C2F88831CB7B096943EA0121C2F88C11CD
:10125000D2F8801141F00101C2F8801130BD0420A4
:1012600030BDD2F880314C7A23430C8843EA445392
:10127000C2F88031D0E700002DE9F05F2DED0A8B38
:1012800000F07EFC044600F077FCEC494FF4FA6273
:1012900091F9021011FB02F1B0F9000000EE101AF2
:1012A00000EE900AB8EEC00AF8EEE00A9FEDE41AEC
:1012B00000EE810ABDEEC00A10EE100A06B200F080
:1012C0002FFCDFF88083D8F80400C0B900259FED1B
:1012D000DE8ADFEDDE8ADE4F05EB850007EB0010CE
:1012E000F0EE480AB0EE680ADA4900F0FFFE6D1C25
:1012F000062DF1DBD8F80410491CC8F80410D14DB4
:10130000607A083505F1080805F1100905F1180A99
:1013100005F1200B032802D001287DD015E120889B
:10132000A0F5806005F01DF89FEDCB9B53EC192BC9
:1013300005F02EF841EC1B0BE088A0F5806005F06D
:1013400010F89FEDC78B53EC182B05F021F841ECFA
:101350001A0BA088A0F5806005F003F853EC182B59
:1013600005F016F853EC1A2B04F024FF9FEDBEABEA
:1013700053EC1A2B05F00CF853EC1B2B04F01AFF5E
:1013800004F0C0FF28802088A0F5806004F0E9FF09
:1013900053EC192B04F0FCFF41EC1C0BE088A0F58A
:1013A000806004F0DEFF53EC182B04F0F1FF41ECF9
:1013B0001B0BA088C0F5806004F0D3FF53EC182B02
:1013C00004F0E6FF53EC1B2B04F0F4FE53EC1A2B55
:1013D00004F0DEFF53EC1C2B04F0ECFE04F092FF53
:1013E000A8F800002088A0F5806004F0BAFF53EC54
:1013F000192B04F0CDFF41EC1C0BE088A0F58060B8
:1014000004F0AFFF53EC182B04F0C2FF41EC1B0BB0
:10141000A088A0F5806000E053E004F0A2FF53EC48
:10142000182B04F0B5FF53EC1B2B05F0AFF853EC71
:101430001A2B04F0ADFF53EC1C2B04F0BBFE04F0A0
:1014400061FFA9F800002088A0F5806004F089FF02
:1014500053EC192B04F09CFF41EC1B0BE088A0F52A
:10146000806004F07EFF53EC182B04F091FF41ECF8
:10147000190BA088C0F5806004F073FF53EC182BA3
:1014800004F086FF53EC192B05F080F853EC1A2B6F
:1014900004F07EFF53EC1B2B04F08CFE04F032FFB3
:1014A000AAF80000E0884FF6F671A0F5806000EB26
:1014B00080004000ABF80000E088A0F58060484361
:1014C00040E05E4840F2654390F9001090F90170E9
:1014D000C819A0EB001202EB8202C2EB021206EB6B
:1014E00082022A80CA1B12FB03F206EB8202A8F8D2
:1014F0000020791A11FB03F106EB8101A9F8001015
:1015000010FB03F006EB8000AAF800004EF66C60BA
:1015100017FB00F004F025FF9FED558B53EC182BC3
:1015200004F036FF04F0EEFEABF8000041F2941038
:1015300017FB00F004F015FF53EC182B04F028FF04
:1015400004F0E0FE3F4930310880414E042106F5A9
:10155000487096ED080A80ED000A96ED1C0A80EDB1
:10156000010A96ED300A80ED020A96ED440A80EDFC
:10157000030A03F0C7FBA6F10C0728883880B8F8E7
:1015800000007880B9F80000B880BAF80000F88050
:10159000BBF8000038812B48303000250088788166
:1015A00037F91510284600F013FF05EB850006EB10
:1015B000001000F0CBFD6D1C062DF1DB607A0228D7
:1015C00031D096ED460ABDEEC00A10EE100A96ED37
:1015D000320A03B2BDEEC00A10EE100A96ED1E0AE2
:1015E00002B2BDEEC00A10EE100A96ED0A0A01B270
:1015F000BDEEC00A10EE100A00B2FFF7EBFA96ED4E
:101600006E0ABDEEC00A10EE100A96ED5A0ABDEC45
:101610000A8BBDEEC00A01B210EE100ABDE8F05F01
:1016200000B200F045B8BDEC0A8B00231A461946FB
:101630001846BDE8F05FFFF7CDBA0000D2040020E5
:10164000000016432000002000803B460000FA45C1
:10165000680100206C6700080000000000001640D0
:101660009A9999999999E13F00000000000024405F
:10167000273108AC1C5AE43FFFF7FEFD0A2003F0B7
:10168000B7FDF9E7024600200A4200D0012070476A
:1016900038B500F075FA044600F06EFA00200090AC
:1016A00003460246217A4FF40070FFF777FB38BDFE
:1016B00030B40C4A40F2FF13082413600023137265
:1016C00053729472040AD4721073080A507391739F
:1016D000D37313745374937430BC11460248FFF7EC
:1016E00078BD00003401002000640040FFF7D0FF07
:1016F0000A2003F07DFDF9E7F0B50188C1F30A0582
:1017000027494D8042788378D20842EA4312C2F3D7
:101710000A048C808278C378920942EA83020379B2
:1017200042EA8322C2F30A03CB8002794679520847
:1017300042EAC612C2F30A020A814679B7098F72D9
:101740004679C6F30116CE72B0F806C0A1F80CC0F7
:10175000B0F808C0A1F80EC0B0F80AC0A1F810C0D7
:1017600090F80CC081F812C090F80DC081F813C039
:10177000C089888201D0012000E00020087006B9ED
:101780000020087005B90020087004B90020087016
:1017900003B90020087002B900200870F0BD0000F5
:1017A000BC04002070B50C4D0C4C2946204600F0BE
:1017B000EBF800280ED02946204600F02BF8084907
:1017C000204600F011F80748FFF796FFBDE870408B
:1017D00000F09CB970BD00000088002088600240C5
:1017E0000008002048010020074A904201D2074823
:1017F00001E005481038064A8B0001EA020101D5D4
:10180000C160704781607047106402400060024010
:101810007D0F7D0F074A904201D2074801E005483D
:101820001038064A8B0001EA020101D5C1607047F9
:101830008160704710640240006002407D0F7D0FA0
:101840000029016802D041F0010101E021F001010D
:10185000016070472DE9F043016821F0010101604A
:101860000021016041608160C1600161212141610D
:101870003C493C4A3D251039904202D18D60BDE87B
:10188000F083384A4FF474661832904201D18E606A
:10189000F5E7344A4FF474173032904201D18F602B
:1018A000EDE7304A4FF0746C4832904202D1C1F8F3
:1018B00008C0E4E72B4B2C4A6033984201D1CA6040
:1018C000DDE7284C294B7834A04201D1CB60D6E724
:1018D000DFF89080264C08F19008404501D1CC609B
:1018E000CDE7DFF880804FF03D5908F1A80840456A
:1018F00002D1C1F80C90C2E71E49DFF878800839A0
:10190000404501D10D60BAE71A4D1835A84201D102
:101910000E60B4E7174D3035A84201D10F60AEE735
:10192000144D4835A84202D1C1F800C0A7E7114DB7
:1019300010496035091FA84201D10A609FE70D4A8E
:101940007832904201D10B6099E70A4A9032904276
:1019500001D10C6093E7074AA83290428FD1C1F8B9
:1019600000908CE7106002403D000020400F0020F6
:1019700000003D2010640240014600200968C907AC
:1019800000D001207047000030B5104A002490427A
:1019900001D20F4A01E00D4A103A0E4B194205D010
:1019A0001E2303EAD12503682B4002E0406900F0C2
:1019B0008003880001D5506800E01068064A104096
:1019C000084201D003B10124204630BD106402401A
:1019D000006002403C0F3C0F7D0F7D0F0B0607D5CA
:1019E000436912B143F0800301E023F080034361B7
:1019F000802908D0002A026801F01E0101D00A43A4
:101A000000E08A430260704730B50368124ACC6830
:101A100013400A682243D1E905452C432243CC698F
:101A200022430C6A22434C6A22438C6A22434C6B49
:101A300022438C6B22431A430260426922F007035F
:101A4000D1E90B2422431A4342610A6942604A6881
:101A500082608968C16030BD3F801CF07047F0B57E
:101A6000002201274FF0030C0B6807FA02F52B4008
:101A7000AB422CD1066853000CFA03F4A64306606F
:101A80000E79D0F800E09E4046EA0E0606600E7918
:101A9000012E01D0022E12D18668A64386604E79AF
:101AA000D0F808E09E4046EA0E0686604668AE43DF
:101AB000466045688E799640B6B235434560C56844
:101AC000A543C560CC799C40C3681C43C460521CCC
:101AD000102AC9D3F0BD4B07DB0E9A40C90810B5D8
:101AE00000EB8100016A0F249C40A1430162016A5E
:101AF0001143016210BD0246002012690A4200D063
:101B00000120704741837047018370470148007886
:101B100070470000BC04002000487047D00400203B
:101B200070B5FFF7F9FF134A00210388CB4003F09B
:101B300001035354491CC9B21029F6D30D48137838
:101B40004FF0FF31093803B141705578012605B1D6
:101B50004670947804B10170D17801B10670002B01
:101B600007D1002C05D1002D03D1002901D14170EE
:101B7000017070BDDB04002000487047C8040020DD
:101B800000487047BE040020FEE7000070B50E4D0F
:101B90004FF4007421462846FFF7B4FF00F098F890
:101BA00061102846FFF7AEFF022000F065FE2146D7
:101BB0002846FFF7A9FF022000F05EFE21462846D6
:101BC000BDE87040FFF79EBF000402401CB5012134
:101BD000022000F017FB4FF44070009001208DF8B8
:101BE000040003218DF80510074C8DF806006946A6
:101BF0002046FFF734FF61152046FFF785FFA1154A
:101C00002046FFF781FF1CBD0004024070B50E4D59
:101C10004FF4007421462846FFF774FF00F058F88F
:101C200061102846FFF770FF022000F025FE2146D4
:101C30002846FFF769FF022000F01EFE21462846D5
:101C4000BDE87040FFF75EBF000402402DE9F04799
:101C50008046002400F02EF8154F00254FF4007642
:101C60004FF4807931463846FFF74CFF022000F0F0
:101C700003FE31463846FFF747FF6006040E49462B
:101C80003846FFF738FF08B1641CE4B2012000F0C9
:101C9000F3FD6D1CEDB2082DE4D3B8F1000F04D0B4
:101CA000FFF774FF2046BDE8F087FFF7AFFFF9E7C5
:101CB000000402401CB54FF48070009000208DF8A5
:101CC000040069460148FFF7CAFE1CBD000402403B
:101CD0007CB501208DF8040003228DF80520074D06
:101CE0004FF480748DF80600009469462846FFF78B
:101CF000B6FE21462846FFF707FF7CBD00040240E0
:101D00002DE9F0410546FFF7E3FF164F4FF400764B
:101D100031463846FFF7F6FE00244FF48078280657
:101D20004146384602D5FFF7EFFE01E0FFF7EAFE35
:101D30006806050E022000F09FFD31463846FFF789
:101D4000E3FE022000F098FD31463846FFF7DAFE48
:101D5000022000F091FD641CE4B2082CDFD3BDE842
:101D6000F08100000004024070B5FFF7B1FF0E4D96
:101D70004FF4807421462846FFF7C6FE66003146C0
:101D80002846FFF7C1FE042000F076FD21462846D4
:101D9000FFF7B8FE042000F06FFD31462846BDE88D
:101DA0007040FFF7AFBE00000004024070B5FFF7BF
:101DB0008FFF0E4D4FF4007421462846FFF7A2FE18
:101DC000661031462846FFF79DFE042000F054FDC2
:101DD00021462846FFF798FE31462846FFF794FE35
:101DE000BDE87040042000F047BD00000004024040
:101DF0002DE9F0410024FFF76BFF154D4FF480767D
:101E000031462846FFF780FE012000F035FD6F15B2
:101E100039462846FFF778FE012000F02DFDFFF738
:101E200049FF08E0641CE4B2C82C04D9FFF7BEFFE8
:101E30000120BDE8F08131462846FFF75CFE00280E
:101E4000F0D139462846FFF75DFE0020F1E700009B
:101E50000004024010B5FFF7B9FE80216B2000F0AE
:101E6000BFF8642000F022FD00216B2000F0B8F8DC
:101E7000032000F081F8002000F079F8322000F013
:101E800098F80021382000F0ABF800216A2000F01B
:101E9000A7F8FF21232000F0A3F88021372000F0CD
:101EA0009FF8752000F011F8682801D0012010BDBE
:101EB00001216B2000F094F800216C2000F090F8D4
:101EC000322000F076F8002010BD10B50446FFF770
:101ED0004BFFD020FFF714FFFFF78AFF2046FFF7E4
:101EE0000FFFFFF785FFFFF73FFFD120FFF708FF48
:101EF000FFF77EFF0020FFF7A9FE0446FFF756FF1D
:101F0000204610BD2DE9F0411C4615460F460646F9
:101F1000FFF72AFF7006000EFFF7F2FEFFF768FFDB
:101F200020B1FFF743FF0120BDE8F0813846FFF7FD
:101F3000E7FEFFF75DFFFFF717FF012000EB46000C
:101F4000C0B2FFF7DDFEFFF753FF08E0012D0CD014
:101F50000120FFF77BFE6D1E04F8010BEDB2002D92
:101F6000F4D1FFF723FF0020DEE70020F1E7C006F1
:101F7000010E1C2000F034B8C006010E1B2000F03A
:101F80002FB8BC2801D3012110E0622801D302211F
:101F90000CE02A2801D3032108E0142801D30421EE
:101FA00004E00A2801D3052100E006211A2000F0F0
:101FB00017B810B504464FF47A70844201D904462C
:101FC00002E0042C00D20424B0FBF4F0401EC1B2A5
:101FD000192000F005F86008BDE81040FFF7D1BFF8
:101FE00070B50C460546FFF7BFFED020FFF788FE10
:101FF000FFF7FEFE50B92846FFF782FEFFF7F8FE16
:102000002046FFF77DFEFFF7F3FE18B1FFF7CEFE87
:10201000012070BDFFF7CAFE002070BD2DE9F04120
:102020001D4616460C460746FFF79EFE7806000E34
:10203000FFF766FEFFF7DCFE60B92046FFF760FEA3
:10204000FFF7D6FE00240CE0285DFFF759FEFFF7EE
:10205000CFFE20B1FFF7AAFE0120BDE8F081641C8D
:10206000E4B2B442F0D3FFF7A1FE0020F5E7FEE7AB
:102070007047000030B50F23C27801780125FAB10E
:10208000144A126801F1E02102F4E062C2F5E06254
:10209000C2F30722C2F10404D3404278A2408478FC
:1020A0001C401443220181F80024007800F01F0135
:1020B0008D404009800000F1E020C0F8005130BDA3
:1020C00001F01F0085404809800000F1E020C0F8C1
:1020D000805130BD0CED00E0024908430249086020
:1020E000704700000000FA050CED00E0002829D040
:1020F000002927D00822027091ED001A80ED011A04
:1021000091ED011A80ED021A91ED021A80ED031A89
:1021100080ED040A9FED0C0AC0ED050A80ED100A5F
:1021200080ED0F0A80ED0E0A80ED0A0A80ED0D0A9F
:1021300080ED0C0A80ED0B0A80ED130A80ED120A87
:1021400080ED110A704700000000000090ED120AB7
:1021500080ED130AD0ED111AC0ED121A90ED060AA7
:10216000D0ED080A30EE600A80ED110AB5EEC00A23
:10217000F1EE10FA02DDF0EE400A01E0F1EE400A65
:1021800010EE901A1E4A914207DAD0ED0C0A90ED3B
:10219000021A40EE010AC0ED0C0A90ED0C1AD0EDC7
:1021A000050AB4EEE01AF1EE10FA09DCF1EE600A6D
:1021B000B4EEE01AF1EE10FA02D3D0ED0C0A01E011
:1021C000C0ED0C0A90ED011A41EE000A30EE610AF2
:1021D00090ED031A41EE000AC0ED0A0A90ED040AE0
:1021E000F4EEC00AF1EE10FA06DCB1EE400AF4EEAD
:1021F000C00AF1EE10FA01D280ED0A0A7047000021
:1022000000007A44044A0029116801D0014300E02B
:10221000814311607047000030380240044A0029B1
:10222000116801D0014300E0814311607047000054
:1022300040380240044A0029116801D0014300E0FF
:1022400081431160704700002038024070B5204B78
:102250001968204C11F00C0104D06610042903D039
:10226000082903D004601BE0066019E0184A121F19
:102270001168C1F38055116801F03F0115B1B6FB3B
:10228000F1F101E0B4FBF1F114681268C4F38814B1
:102290006143C2F30142521C5200B1FBF2F10160F2
:1022A00019680F2202EA11110B4A545C0168E140DF
:1022B00041601C68072505EA9424145D21FA04F4A2
:1022C00084601B6805EA5333D25CD140C16070BDA5
:1022D000083802400024F4009C00002006280AD29E
:1022E00000EE101A044900EB8000B8EEC00A01EBC2
:1022F000001080ED080A7047E80300200CB50022AA
:10230000274900920192086840F4803008604FF439
:10231000A043086800F4003001900098401C009031
:10232000019810B900989842F3D10868800334D519
:10233000012001901A484030026842F08052026049
:102340001848026842F440420260154808300268AA
:102350000260026842F400420260026842F4A05245
:102360000260031F104A1A600A6842F080720A6015
:102370000A689201FCD50D4940F205720A600168B5
:1023800021F003010160016841F002010160016870
:10239000C1F381010229FAD10CBD01920CBD0000EC
:1023A000003802400070004008544007003C0240E2
:1023B00006280AD200EE101A044900EB8000B8EE9D
:1023C000C00A01EB001080ED080A70476801002088
:1023D00006280AD200EE101A044900EB8000B8EE7D
:1023E000C00A01EB001080ED060A7047680100206A
:1023F0004FF0E0210428086903D020F004000861B0
:10240000704740F00400FAE710B503F077FC0128AC
:1024100003D0BDE8104003F065B910BD124810B5F7
:10242000016841F4700101601048016841F0010148
:1024300001600E4A00210832116002680C4B1A40FC
:102440000260031D0B4A1A60026822F480220260B7
:1024500006480C300160FFF751FF03494FF0006060
:102460008039086010BD000088ED00E000380240AF
:10247000FFFFF6FE1030002470B5154C40F22551D8
:10248000204600F0F5F800280ED0204600F07EF936
:10249000104AC1B21088030406D444044FF000036C
:1024A00006D50A2901D0138070BD40F400400DE02C
:1024B0000D2909D0C0F30D04074D401C80B22955E9
:1024C0001080C728EFD870BD40F48040108070BDE8
:1024D000004C004096000020EB04002010B5044C96
:1024E0000146204600F056F920880006FCD510BDB4
:1024F000004C004070B50D460646002404E0305DF7
:10250000FFF7ECFF641CE4B2AC42F8D370BD0000EE
:102510002DE9F04788468246012196B0914608464B
:10252000FFF770FE01214804FFF778FE01214805FE
:10253000FFF768FE414E072202213046FFF7CBFA33
:10254000072203213046FFF7C6FA04200F9002202D
:102550008DF840008DF8410000248DF8424001259F
:102560008DF843500FA93046FFF779FA08200F90F5
:102570008DF842508DF843400FA93046FFF76FFAAF
:102580002F4E00213046FFF75BF93046FFF7F4F994
:102590000028FAD13046FFF75DF94FF00060009057
:1025A000284801902848CDE9020404A912204FF4DC
:1025B000806781E89100B810CDE908400AA9079426
:1025C0004FF4403081E831000D94694630460E9456
:1025D000FFF71AFA01213046FFF732F910208DF883
:1025E00054008DF855808DF856908DF8575015A8E9
:1025F000FFF740FD012210213046FFF7EFF9ADF85B
:102600004840ADF84A40ADF850400E4CADF84C7023
:102610000C20ADF84E00241FCDF844A011A920468F
:1026200000F05EF80121204600F010F80122402160
:10263000204600F015F816B0BDE8F0870000024013
:10264000886002400444004048010020002981893C
:1026500002D041F4005101E021F400518181704722
:10266000002A828A01D00A4300E08A4382827047AE
:1026700070B501F01F0501260024C1F3421306FACC
:1026800005F2012B0FD0022B0FD0838A4FEA1121C4
:102690000088134206FA01F600EA060001D000B1F4
:1026A0000124204670BD8389F0E7038AEEE710B568
:1026B000C1F3421301F01F040121A140012B07D0F7
:1026C000022B07D01430002A026805D00A4304E028
:1026D0000C30F8E71030F6E78A43026010BD0000C6
:1026E0007FB50446008A0D46C98820F44050014356
:1026F0002182A08941F20C618843A9882A8911436B
:102700006A8902431143A181A08A20F44071A889FB
:102710000843A0826846FFF799FD1A48844202D018
:102720001948844201D1039800E00298A189090464
:1027300000EBC00101EB0010296801D5490000E061
:102740008900B0FBF1F06422B0FBF2F109010B0942
:102750006FF018056B4300EB8300A3891D044FF055
:10276000320306D503EBC000B0FBF2F000F0070027
:1027700005E003EB0010B0FBF2F000F00F0008439F
:1027800020817FBD00100140001401408088C0F30B
:1027900008007047C1F3080181807047FEE73038B8
:1027A0000A2801D2012070470020704770470000BE
:1027B000FEB506460D460024684600F0A3FC002244
:1027C0009FED1B1A6B46012156F8220055F8227026
:1027D000C01B00D5404200EE100A03EB8200B8EEA9
:1027E000C00AD0ED000A20EE010AF5EEC00AF1EEB3
:1027F00010FA0DD0C0EE201AB7EE000A0D4F31EEE0
:10280000C00AB0EEC00A10EE100AB84207DC09E0B8
:1028100010EE100A084F3844084FB84202D301FAAC
:1028200002F00443521C032ACEDB2046FEBD00000A
:1028300000008037295C0F3E666666C19A99D90010
:1028400010B504460420FFF7D3FD0A484FF47A710F
:10285000047014FB01F1012242804FF0E020026974
:1028600042F0020202614161016941F0010101612E
:1028700010BD00009200002070B54FF0E02500214F
:102880006C69094AAB6912785043AA699A42FCD034
:1028900002D2A3EB020302E0A4EB02063344194484
:1028A00013468142F1D370BD9200002070B50546F9
:1028B00000244FF47A7603E03046FFF7DDFF641C16
:1028C000AC42F9D370BD08B560B120208DF800008E
:1028D00028208DF8010030208DF8020038208DF876
:1028E000030004E0A32204216846FDF7C6FE6A4601
:1028F000042140F69E2001F08DFC01F051F908BD45
:102900003EB5044602208DF80000CA208DF8010073
:10291000E3208DF8020009208DF803006A460421A7
:10292000682001F077FCA3208DF80000610609D52E
:10293000C0218DF80110C8218DF80210C2218DF838
:10294000031005E08DF801008DF802008DF80300FA
:1029500014F4C07F09D0C4218DF80410CC218DF867
:102960000510C6218DF8061005E08DF804008DF8DD
:1029700005008DF806008DF808008DF807008DF829
:1029800009006A460A2140F6A72001F043FCA0078F
:102990004FF0D80503D020208DF8000001E08DF81D
:1029A00000506A46012140F6B62001F033FCA00633
:1029B00001D5012000E0002000F090F814F4C07F61
:1029C0001ED0E0050AD5B2208DF800008B208DF8CE
:1029D0000100B6208DF802009B2009E0B0208DF8A0
:1029E000000080208DF80100B4208DF802009020B6
:1029F0008DF803006A46042140F6A22001F00AFC8B
:102A0000E0074FF40B6323D0F8208DF800006A46EE
:102A10000121184601F0FEFBFA21072000F096FA8A
:102A2000072000F061FA012000F07EFA642000F037
:102A30003DFB4FF4FA7000F049FBC821254800F037
:102A40001BFA282000F030FA0A2000F03DFA06E0D8
:102A50008DF800506A460121184601F0DBFBA00703
:102A600003D5D9208DF8000001E08DF800506A46AA
:102A7000012140F23D7001F0CDFB600701D501203E
:102A800000E0002000F046F8E00601D5012000E05B
:102A90000020FFF718FF104D44F00800688101F096
:102AA0007FF80020A873600601D50620A87314F4EF
:102AB000C07F02D0A87B801DA87314F0140F02D031
:102AC000A87B1030A873A00702D0A87B001DA873B4
:102AD00000203EBD09E3CA02AC0400200EB54FF44D
:102AE000976308B105A000E007A007C88DE80700BC
:102AF0006A460921184601F08DFB0EBDB8AAB38DB8
:102B0000B4980D355D000000B8AAAAAAB088C3C564
:102B1000C700000008B560B1C0208DF80000C220D9
:102B20008DF80100C4208DF80200C6208DF8030046
:102B300004E08B2204216846FDF79FFD6A460421CC
:102B400040F6982001F066FB01F02AF808BD00006D
:102B5000C8234FF48062024940F6F63000F048BFC7
:102B6000E06700082DE9FF41044603A800F0F0FDEE
:102B7000BDF80C00420CC3032F48018901F003008B
:102B80004D0754F8200000D54042C1F3C1058E0620
:102B900054F8255000D56D42C1F38116C90554F88B
:102BA000264000D56442A0FB0367C11701FB0371F7
:102BB00000FB0210810041EA9670A5FB0367E9174C
:102BC00001FB037105FB02118D0045EA9671A4FB20
:102BD0000367E51705FB037304FB0232930043EA26
:102BE0009672030E8DF80030030C8DF80130030A45
:102BF0008DF802308DF80300080E8DF80400080CE3
:102C00008DF80500080A8DF80600100E8DF80800F2
:102C1000100C8DF80900100A8DF80A008DF80710C5
:102C20008DF80B206A460C214FF4257001F0F2FA62
:102C300004B0BDE8F0810000AC04002030B50446CB
:102C400013A185B007C98DE807004FF0FF35C82CE8
:102C500016D8C820B0FBF4F1491E080A8DF80C0004
:102C60008DF80D1003AA022140F2162001F0D2FACD
:102C700030B96A460C2140F6C12001F0CBFA10B100
:102C8000284605B030BD054884810020F9E70000E2
:102C9000FEF2ABC4AAF1DFDFBBAFDFDFAC04002084
:102CA000F8B53049098901F0030250F822404A077B
:102CB00000D56442C1F3C10250F822308A0600D523
:102CC0005B42C1F3811250F82220C80500D5524260
:102CD000254984FB0140850045EA947083FB01434C
:102CE00082FB0121950F45EA8105010E8DF8001048
:102CF000010C8DF80110010A8DF80210A40F8DF857
:102D0000030044EA83046A4604214FF4747001F01E
:102D100081FA4FF0FF3688B9200E8DF80000200CA4
:102D20008DF80100200A8DF802008DF803406A46F4
:102D300004214FF4757001F06DFA08B13046F8BD0A
:102D4000280E8DF80000280C8DF80100280A8DF857
:102D500002008DF803506A4604214FF4767001F0AA
:102D600059FAF8BDAC04002009E3CA022DE9FF417D
:102D700004463CA002AB006802903BA000680390B0
:102D80003AA006683AA0056804F00300195C8DF8C3
:102D90000010C4F3C1015A5C8DF80120C4F3811204
:102DA0009B5C8DF8023003AB185C8DF80400585C16
:102DB0008DF80500985C8DF806006A46032140F204
:102DC000264001F027FA4FF0FF37E0BB01AA0321AC
:102DD00040F22A4001F01EFAA8BBCDE90065600769
:102DE0000BD59DF8000040F001008DF800009DF823
:102DF000040040F001008DF80400A0060BD59DF8FA
:102E0000010040F001008DF801009DF8050040F040
:102E100001008DF80500E0050BD59DF8020040F09B
:102E200001008DF802009DF8060040F001008DF8C9
:102E300006006A4603214FF4886001F0EBF910B9EF
:102E400001AA032100E004E040F2314001F0E2F980
:102E500018B1384604B0BDE8F0810648048100206E
:102E6000F8E700004CCD6C000CC92C0036567600FB
:102E700026466600AC0400204FF47A7290FBF2F014
:102E800008B54843010E8DF80010010C8DF80110B3
:102E9000010A8DF802108DF803006A4604214FF4F0
:102EA000AE7001F0B7F908BD0521B0FBF1F008B52F
:102EB000010A8DF800108DF801006A4602214FF4D6
:102EC000AD7001F0A7F908BD0521B0FBF1F008B520
:102ED000010A8DF800108DF801006A4602214FF4B6
:102EE000AC7001F097F908BD08B500218DF800100D
:102EF000C10702D030218DF80010810705D59DF85B
:102F0000001041F00C018DF80010400705D59DF828
:102F1000000040F003008DF800006A4601214FF4E4
:102F2000A47001F077F908BD08B560B1042800D994
:102F30000420401E8DF800006A46012140F24F1027
:102F400001F068F908BD0120F3E7000070B5044600
:102F50002DED028B82B040074FF0FF357ED0B1F5EA
:102F6000C86F7BD800EE101AB8EE400ADFED460AB3
:102F700001A880EE208A00F0CDFB9DF80400022815
:102F800006D0042810D0082835D0102874D13EE08F
:102F90009FED3E0A28EE000ABCEEC00A10EE100AB1
:102FA0009FED3B0A82B20AE09FED3A0A28EE000A42
:102FB000BCEEC00A10EE100A9FED370A82B228EE6E
:102FC000000A6E46BCEEC00A10EE100A81B2100A6A
:102FD0008DF800008DF80120080A8DF802008DF8A8
:102FE0000310E00726D0324602214FF4EA7001F0C8
:102FF00011F998BB17E09FED290A28EE000ABCEEF4
:10300000C00A10EE100A9FED260A82B2D7E79FEDA4
:10301000250A28EE000ABCEEC00A10EE100A9FED49
:10302000220A82B2CBE7B21C02214FF4927001F067
:10303000F1F898B9A0070DD56A4602214FF4EC705B
:1030400001F0E8F850B9B21C02214FF4947001F07D
:10305000E1F818B9600714D56A4600E00CE00221D7
:103060004FF4EE7001F0D6F830B9B21C02214FF4E3
:10307000967001F0CFF820B1284602B0BDEC028B6B
:1030800070BD0020F9E700000000484300008046C2
:1030900000004046000000460000C045000080459A
:1030A00000004045000000450000C0440521B0FB81
:1030B000F1F008B5010A8DF800108DF801006A469C
:1030C00002214FF4EF7001F0A5F808BD0521B0FB17
:1030D000F1F008B5010A8DF800108DF801006A467C
:1030E00002214FF4ED7001F095F808BD04490A88FB
:1030F0005206FCD5024AC1B2121D11807047000071
:10310000004C00401CB5044627486B46042240682A
:103110000D210078FEF7F6FE08B107201CBD9DF8D2
:1031200000001C2101EAD0029DF803009FED1F1A48
:10313000C0F301131A438DF804209DF80120C0F359
:10314000810301EAD2021A438DF805209DF802207E
:1031500000F0030001EAD20101438DF80610DFED13
:10316000141A9FED140A002101A8425C22B104EB5D
:103170008103C3ED001A0AE004EB810282ED001A1C
:103180000BE0D3ED000A60EE800AC3ED000A425C5A
:10319000521E12F0FF024254F3D1491CC9B2032956
:1031A000E3D300201CBD00005C00002000000000F4
:1031B0007B14AE3E1D5A843F2DE9FE4F054601208B
:1031C000C14E8DF800004FF000088DF80180306886
:1031D0000C461746817C70686B4602220078FEF729
:1031E0001DFF4FF0FF3A00287AD1C820FFF75EFBA1
:1031F0008DF8008030686B460122C17B70680078D2
:10320000FEF70CFF0028EFD130686B4601224179B0
:1032100070680078FEF702FF0028E5D130686B4641
:103220000122817C70680078FEF7F8FE0028DBD16F
:1032300030686B460122C17D70680078FEF7EEFEB3
:103240000028D1D130686B4601220179706800787E
:10325000FEF7E4FE0028C7D14FF00C098DF800906E
:1032600030686B460122017970680078FEF7D6FE5F
:10327000002835D10F20FFF719FBB06A6B460122F9
:10328000407A8DF800003068817870680078FEF729
:10329000C5FE002824D1B06A6B460122007A8DF861
:1032A00000003068417870680078FEF7B7FE0028AB
:1032B00073D1B06A807A0FB140F0E0008DF8000061
:1032C00030686B460122817970680078FEF7A6FEAF
:1032D000002862D12FB1B06AC07A40F0E00001E06E
:1032E0004AE018208DF8000030686B460122C17951
:1032F00070680078FEF792FEF0BB17B1C820FFF7A8
:10330000D5FA40208DF8000030686B460122017923
:1033100070680078FEF782FE70BB78208DF80000A0
:1033200030686B460122417970680078FEF776FEBE
:1033300010BB3220FFF7BAFA8DF80080306847469C
:103340006B464179706801220078FEF767FE98B9F4
:1033500031687068B046897A00786B460222FEF7C1
:10336000D1FD48B9BDF80000AF6040BAB0FBF9F03C
:103370006F60C6B22F6000E00FE0A7606760276053
:10338000002739E0D8F80010D8F804006B46C97A55
:1033900000780C22FEF7B6FD10B15046BDE8FE8F56
:1033A000BDF80000236840BA02B2BDF802001A441A
:1033B00040BA01B2BDF804002260626840BA11440C
:1033C0006160A16800B20844A060BDF806002B68E7
:1033D00040BA02B2BDF808001A4440BA01B2BDF8C2
:1033E0000A002A606A6840BA11446960A96800B29C
:1033F00008447F1CFFB2A860B742C3D32868832269
:10340000C117090441EA104100040023FCF791FFB1
:1034100032460023FCF78DFF286068688322C117BD
:10342000090441EA104100040023FCF782FF324600
:103430000023FCF77EFF6860A8688322C117090497
:1034400041EA104100040023FCF773FF32460023D9
:10345000FCF76FFFA86020684FF40065C1170904EE
:1034600041EA104100042A460023FCF762FF32467D
:103470000023FCF75EFF206060682A46C11709043C
:1034800041EA104100040023FCF753FF32460023B9
:10349000FCF74FFF6060A0682A46C117090441EAA3
:1034A000104100040023FCF744FF32460023FCF7E0
:1034B00040FFA060002802DDA0F5803001E000F5AB
:1034C0008030A060002069E75C000020F8B5064667
:1034D0002E480D46002440686B46032200780D21DB
:1034E000FEF710FD08B10720F8BD9DF8000000228E
:1034F00000F01F008DF800009DF80100DFED241A98
:1035000000F01F008DF801009DF80200694600F0F0
:103510001F008DF80200012356F8220055F8227092
:10352000C01B00D5404200EE100A885CB8EEC00A0D
:1035300060EE210AD0B1B3EE090A9FED161A01E040
:1035400020EE010AC0B2401E10F0FF008854F7D1EF
:1035500080EE801AB7EE000A0F4F31EE400AB0EE4F
:10356000C00A10EE100AB84207DC09E010EE900A1B
:103570000A4F3844B0F1D97F02D903FA02F004436C
:10358000521C032AC8DB2046F8BD00005C00002066
:103590000000803754E3853F295C0F3E0000E0BE09
:1035A00000B5024600F00DF80346D01C00F009F803
:1035B00043EAC003901D00F004F843EA801080B293
:1035C00000BD90F90010002902DD4FF000007047A7
:1035D00002DA4FF00400704790F90110002902DD73
:1035E0004FF00100704702DA4FF00500704790F984
:1035F0000200002802DD4FF00200704702DA4FF0AF
:10360000060070474FF00700704701F0E7FB01F03C
:1036100095FB01F04DFFFEE72DE9F041134D20F041
:103620000104002695F8240010B10020BDE8F081C7
:10363000A87A4FF0FF3838B120402F7C2874A04280
:1036400000D0464624B901E04046EFE7287D40B16E
:10365000012001F02DFB3CB100F0A2FA20B12F7443
:10366000F2E7002001F024FB3046DFE75C00002099
:1036700010B5FEF7ABFA00F0F7F888BB782000F041
:103680006DFD10F0FF0F01D0012010BD7820FFF775
:10369000C3FF10F0FF0F01D0022010BD642000F026
:1036A00021FD10F0FF0F01D0032010BDFFF750FAED
:1036B00010F0FF0F01D0042010BD1548FFF770FF78
:1036C000FFF754FB10F0FF0F01D0052010BD40F2B2
:1036D0007310FFF715F910F0FF0F02D0062010BD90
:1036E00014E06420FFF7AAFA10F0FF0F01D00720C2
:1036F000F5E701F099FA08B10820F0E7012000F0A1
:1037000017FC10F0FF0F01D00920E8E70020E6E7E2
:10371000880000200D4A517A41B1012908D00229C0
:103720000FD003290FD04FF0FF307047022100E087
:1037300004210170D17C11B1017849000170002091
:1037400070470821F5E71021F3E700005C00002036
:103750000F4A517A41B1012909D0022911D0032918
:1037600012D04FF0FF3070474FF4804101E041F636
:103770009C710180D17C11B1018849080180002031
:1037800070474FF48051F4E74FF40061F1E7000017
:103790005C0000200B49097A39B1012907D00229C0
:1037A0000AD003290BD0002103E0FA2101E04FF4F5
:1037B000FA710180002070474FF47A71F9E74FF4F5
:1037C000FA61F6E75C0000200D49097A41B1012950
:1037D00009D002290DD003290ED04FF0FF307047D9
:1037E0009FED080A01E09FED080A80ED000A002025
:1037F00070479FED060AF8E79FED050AF5E7000020
:103800005C00002000000343000083423333034286
:10381000333383410C49C97A072913D2DFE801F019
:103820001204060A0C0E1000BC2100E06221018087
:10383000002070472A21FAE71421F8E70A21F6E769
:103840000521F4E70021F2E75C000020054991F82A
:10385000242012B14FF0FF307047C9890180002049
:10386000704700005C0000202DE9FC414C4C80209A
:103870008DF8000020686B460122817C606800782A
:10388000FEF7CCFB4FF0FF37002832D16420FFF762
:103890000DF800258DF8005020686B460122817CD0
:1038A00060680078FEF7BAFB002870D120686B468C
:1038B0000622817D60680078FEF724FB002866D12F
:1038C0009DF805009DF80310C007400F01F00101AD
:1038D00040EA41019DF801004FF0010600F00100AF
:1038E000014309D0012905D0022915D02DA0FCF7EC
:1038F00045FD4CE0E67410E020686B460122C1787B
:1039000060680078FEF7FEFA40BB9DF8000010F0FA
:103910000F0020D0042822D0E574FF2004F80A0FFD
:103920004FF6FF7104F8020C04F8010C6070A180DE
:10393000A0712072A67026766576E572A572E560A4
:1039400025616561A576E576A5834FF4FA6000F000
:103950002BFB18B907E01D48FCF710FD17E01CA071
:10396000FCF70CFDC6E7022000F040FA78B92A20E7
:1039700000F082FB58B9322000F0B4FB38B90020C7
:10398000FFF74AFE18B9002000F064FA10B138467B
:10399000BDE8FC81002000F0E1FB0020F8E700001A
:1039A0005C000020556E737570706F7274656420D2
:1039B000736F6674776172652070726F647563747B
:1039C000207265762025642E0A000000E873000846
:1039D00048616C662073656E736974697669747981
:1039E000207061727420666F756E642E0A0000008C
:1039F0002DE9FF4FDFF898A0054685B09AF825001D
:103A0000914688464FF0FF3BC0BBB8F1000F35D060
:103A100000241FE0281B102800DD102086B208EBD0
:103A200004073A463146204600F0F4FB30BB6A46B4
:103A30003146204600F08AF800BB384632466946D7
:103A4000FCF7AAFD20B16FF0010009B0BDE8F08FCE
:103A5000A01984B2AC42DDD34FEA19208DF81000D2
:103A60008DF81190DAF80000544604AB817EDAF844
:103A7000040002220078FEF7D1FA08B15846E4E7C4
:103A8000012084F825000898E0840020DDE700008C
:103A90005C0000202DE9F84304464FF0FF39282848
:103AA00044D80727284D00267CB1012000F0B2FA47
:103AB00020208DF800004FF00108012C17D0052CB4
:103AC00018D88DF8018005201FE0002000F0A2FA30
:103AD0008DF800608DF8017028686B460222817CA9
:103AE00068680078FEF79AFA00BB2E7529E08DF819
:103AF0000160E8E7142C04D802208DF801000A20A8
:103B000003E003208DF80100142000F0B5FA9DF8C1
:103B100001006B4607EB80108DF801002868022237
:103B2000817C68680078FEF779FA10B14846BDE8F4
:103B3000F8830820A8722E7385F814800020FFF700
:103B40006BFD0020F3E700005C000020F8B51700D3
:103B50000D464FF0FF341FD0104EB17AE1B1010A8B
:103B60008DF80010C0B28DF80100411970684289CB
:103B7000914211D8316800786B46097E0222FEF727
:103B80004DFA48B93068EAB23B46417D706800782A
:103B9000FEF7B8F9002800D02046F8BD5C000020F0
:103BA000F8B5554D4FF0FF36A87A00287ED0002496
:103BB0008DF8004028686B460122C17B6868007858
:103BC000FEF72CFA002871D128686B460122417952
:103BD00068680078FEF722FA002867D128686B46EB
:103BE0000122017968680078FEF718FA00285DD193
:103BF00095F82400E0B30C208DF8000028686B468F
:103C00000122017968680078FEF708FA002871D16E
:103C10003220FEF74BFEC0208DF80000A87AC007C6
:103C200002D0E0208DF8000028686B46012201795F
:103C300068680078FEF7F2F900285BD1687C18B15B
:103C400002208DF8000001E08DF8004028686B46E6
:103C50000122C17B68680078FEF7E0F930BB8DF87F
:103C6000004028686B4601224179686800783DE091
:103C7000FFE704208DF8000028686B4601220179D7
:103C800068680078FEF7CAF980B9A87C88B9A87A74
:103C9000C0070ED060208DF8000028686B46012216
:103CA000017968680078FEF7B9F900E022E008BB06
:103CB00001E04020EFE73220FEF7F8FD687C18B104
:103CC00001208DF8000001E08DF8004028686B4667
:103CD0000122C17B68680078FEF7A0F950B9286816
:103CE000054B01224179686810330078FEF796F998
:103CF000002800D03046F8BD5C0000202DE9F047D8
:103D0000394E82468AB096F824000F4620B1002032
:103D100000F00EF9012500E0002507A8FFF73AFDA5
:103D200006A8FFF7F7FC09A8FFF774FD08A8FFF73E
:103D30008DFD96F80A9096F81080002400223946EE
:103D40005046FFF739FA10B1641C022CF6DB022C46
:103D50001AD00024012203A96846FFF72DFA10B1FA
:103D6000641C022CF6DB022C0ED003A93846FEF7A9
:103D70001FFDC7B269465046FFF7A8FB10F0FF0FC2
:103D80004FF0000402D002E0002403E001240FB948
:103D900044F00204FF2030727072F0724FF6FF712F
:103DA000F181B072307401203073BDF81C0000F056
:103DB000FBF89DF8180000F019F8BDF8240000F099
:103DC0005BF9BDF8200000F08DF9484600F0C6F917
:103DD0004046FFF721FC15B1012000F0A9F80AB018
:103DE0002046BDE8F08700005C00002038B5184C84
:103DF0004FF0FF35A17A19B3022806D0042806D067
:103E000008280ED010281BD10DE0002000E008206B
:103E10008DF80000607A9DF80010B0EBD10F04D04F
:103E200005E01020F4E71820F2E7002038BD2068F4
:103E30006B460122C17960680078FEF7EFF808B19F
:103E4000284638BD9DF80000C0086072EDE700000C
:103E50005C000020F8B5354D0446A87CA04201D195
:103E60000020F8BD31484FF0FF366B46D0E9001016
:103E70004FF001020979007834B3FEF743F870BBC4
:103E80009DF800006B4620F020008DF800002868A7
:103E90000122017968680078FEF7C0F8F8B90320BC
:103EA000FEF704FD02208DF8000095F8220078B39B
:103EB00082202BE028686B460122017D686800782B
:103EC000FEF7ACF858B92EE0FEF71CF838B9A87A1E
:103ED000C0079DF8000003D040F0200002E00CE095
:103EE00020F020008DF8000028686B46012201793F
:103EF00068680078FEF792F808B13046F8BD0320F4
:103F0000FEF7D4FC95F8220000B180208DF8000067
:103F100095F823000028CDD09DF8000040F0300037
:103F20008DF80000C6E7AC749AE700005C00002042
:103F300038B51C4C94F8241081421DD0002500B3E4
:103F400094F82500D0B1002000F0B2FE0020FFF769
:103F500081FFE08C00F0C6F88DF8005060686B4679
:103F6000012200782321FEF759F8012084F824006B
:103F700000F09EFEFFF714FE002038BD4FF0FF302A
:103F800038BD002000F094FE207C8DF800006068B1
:103F90006B46012200782321FEF740F884F8245074
:103FA000E8E700005C00002038B5194C4FF0FF3501
:103FB000A17A31B3FA2809D0B0F5FA7F08D0B0F56C
:103FC0007A7F0FD0B0F5FA6F1BD10DE0002000E032
:103FD00008208DF80000207A9DF80010B0EBD10F7A
:103FE00004D005E01020F4E71820F2E7002038BDE7
:103FF00020686B460122817960680078FEF70EF830
:1040000008B1284638BD9DF80000C0082072EDE7D1
:104010005C00002038B5174D044695F82300A042F7
:1040200001D1002038BD0CB1302000E000208DF817
:104030000000A87C28B19DF8000040F002008DF837
:10404000000095F8220028B19DF8000040F08000A3
:104050008DF8000028686B460122017D68680078B1
:10406000FDF7DCFF10B14FF0FF3038BD85F823407D
:10407000D7E700005C00002038B5194C4FF0FF3541
:10408000A17A31B3BC2801D3012010E0622801D30A
:1040900002200CE02A2801D3032008E0142801D3D1
:1040A000042004E00A2801D3052000E006208DF852
:1040B0000000E07A9DF80010884201D1002038BD50
:1040C00020686B460122817860680078FDF7A6FFC2
:1040D00008B1284638BD9DF80000E072EEE7000008
:1040E0005C000020F8B51C4D04464FF0FF37A87A5D
:1040F00028B395F8240010BB287D48B12CB1282C9A
:1041000003D8E0B2FFF7C6FC24E00020FFF7C2FCB2
:104110004FF47A76042C01D2042402E0B44200D990
:104120003446B6FBF4F0401E8DF8000028686B465C
:104130000122417868680078FDF770FF08B13846C1
:10414000F8BD9DF80000401CB6FBF0F0E881400887
:10415000FFF792FF0020F8BD5C000020F8B5044690
:1041600010F0700F4FF0000601D0012004E014B1F0
:104170008DF8006002E040208DF80000244D6B4671
:1041800001222868817C68680078FDF747FF4FF0BE
:10419000FF3760BB9DF8000020F0400028738DF8C9
:1041A0000060600602D404208DF80000A00605D44B
:1041B0009DF8000040F002008DF80000E00605D4F4
:1041C0009DF8000040F001008DF80000200705D4A4
:1041D0009DF8000040F038008DF8000028686B461C
:1041E0000122C17C68680078FDF718FF10B1AE723B
:1041F0003846F8BD24B1082C02D00020FFF70AFF92
:10420000AC722E753220FEF751FB0020F8BD000085
:104210005C000020F8B517000D464FF0FF341FD0AA
:10422000104EB17AE1B1010A8DF80010C0B28DF8DC
:104230000100411970684289914211D831680078B3
:104240006B46097E0222FDF7E9FE48B93068EAB202
:104250003B46417D70680078FDF7E0FE002800D005
:104260002046F8BD5C0000202DE9F041184E0F46B5
:104270000446F5683068001D00F02EFE38B930683D
:1042800090F82C1001208840316981433161601C15
:1042900007D137B13168BDE8F0410E48091D00F083
:1042A00054BE30682C44AC424460316805D2B06BD7
:1042B000BDE8F041091D00F030BE706B091D00F033
:1042C0002CFEB06A844200D2B462BDE8F0810000E6
:1042D000AC000020C40800202DE9F041054600F0A4
:1042E00041FE2D4EB068401CB06030682B4F10B1BD
:1042F000706930B32BE03560B068012827D1002405
:1043000004EB840007EB800000F0F9FD641C202C16
:10431000F6D3234800F0F3FD2148143000F0EFFD00
:104320001F48283000F0EBFD1D483C3000F0E7FD51
:104330001B48503000F0E3FD194870631430B0633F
:1043400005E03068E96AC06A884200D83560706A62
:104350000121401C70626864E86A3269814011433F
:10436000316100EB800007EB8000291D00F0EDFDBE
:1043700000F034FE706900280CD03068E96AC06A29
:10438000884207D207494FF080500860BFF34F8F33
:10439000BFF36F8FBDE8F081AC000020F405002072
:1043A0007408002004ED00E010B500F0DBFD0E4CB9
:1043B0002068A0B90D4800F0A2FD0C48143000F0B0
:1043C0009EFD0A48E0601430206100221021052083
:1043D00001F09EF9206010B105A100F0D5FEBDE806
:1043E000104000F0FBBD0000E8000020D8080020CD
:1043F000546D72510000000070B5124E124D1CE059
:1044000001F0A0F8306820B1002401F0A5FDA4B9A6
:1044100001E00124F9E700F0A5FDF068C468201D63
:1044200000F05AFDA868401EA8606868401E6860D9
:1044300000F0D4FD204600F052F868680028DFD173
:1044400070BD0000B0080020AC00002030B4026C49
:104450000B46002A0BD0C1681144C1604468A142D8
:1044600001D30168C16030BC1846FCF7C1B830BC4C
:1044700070472DE9F041856B174604460026026C13
:1044800082B1C7B1E068FCF7B3F8E168206C091AA3
:10449000E1602268914202D26168081AE060022F4E
:1044A00016D017E02068A8B9606801F0AFFC064696
:1044B000002060600EE0A068FCF79AF8216CA0680C
:1044C0000844A0606168884204D32068A06001E0CD
:1044D00005B16D1E6D1CA5633046BDE8F08110B5B9
:1044E0000446006B00F0ACFD2046BDE8104000F033
:1044F000A7BD000010484FF43841420706D0C01D48
:104500000D4920F00700411AC1F538410B4A00233C
:104510000144C2E900030839103A21F00701116093
:104520004B600B600B1AC0E9001393604FF0004022
:104530005360D0607047000000090020180100207F
:10454000084E4FF08054084DFFF756FF30680128A1
:1045500004D92C60BFF34F8FBFF36F8F00F0CEFCF8
:10456000F2E70000F405002004ED00E02DE9F0473B
:10457000DDE909840E461746824691009946089D5A
:10458000A522206BFCF779F86FF00301206B01EB9B
:104590008701084420F00707780705D04FF44E72D2
:1045A00019A11EA0FBF7EAFE00202218315C82F858
:1045B0003410315C11B1401C1028F6D3002684F869
:1045C0004360202D00D31F25E562C4E91356201D4A
:1045D00000F0A0FC04F1180000F09CFC2461C5F17F
:1045E00020006462A061666584F858604A465146BE
:1045F000384600F003FB2060B8F1000F01D0C8F886
:104600000040BDE8F08700002E2E5C4672656552C2
:10461000544F535C7461736B732E63004572726FF9
:10462000723A25732C25640D0A00000030B511493B
:1046300000E011460A688242FBD34B685C18844252
:1046400003D1406818444860084643681C189442E7
:1046500009D1084C103C2468A24209D052681A447F
:1046600042600A6812680260814200D0086030BD72
:104670000460F9E71801002070B5002441600B4D7B
:104680000061914206D8D11A8269914206D2011D79
:10469000286907E09A4203D2994201D3012403E03A
:1046A000011DE86800F039FC204670BDE8000020DC
:1046B00010B5044600F056FCA06B20B1002400F0B9
:1046C0008DFC204610BD0124F9E700002DE9F341DF
:1046D00000980F460026846C2CB940F6CE1216A125
:1046E0001AA0FBF74BFEA06BE16B884205D340F6A6
:1046F000CF1211A115A0FBF741FEA06BE16B884220
:104700000CD294F945503A4669462046FFF7B1FE6F
:104710000646681C05D06D1C84F845503046BDE83F
:10472000FC81606A0028F9D004F1240001F0C8FB84
:104730000028F3D00126F1E72E2E5C467265655203
:10474000544F535C71756575652E63004572726FC9
:10475000723A25732C25640D0A000000F8B5054651
:1047600014480E46C068C068C468201D00F0B4FB41
:10477000E069012817D1A0692B464119324620462D
:10478000FFF77AFF78B100200346014600902A46E1
:10479000204601F0C7FC30B907494FF4027201F11D
:1047A0001800FBF7EBFD616A01B02046BDE8F04060
:1047B00008470000E80000208860000870B586B057
:1047C0002F4E53E00198002806DADDE90301029A32
:1047D00090470198002849DB039C606910B1201DB7
:1047E00000F07AFB05A800F0A7F8054601980A2812
:1047F0003CD2DFE800F00505053B273805053B27DF
:104800000298A169034601442A462046FFF734FF77
:1048100000282BD0616A20468847E069012825D10D
:10482000002000900298A1690023421819462046F2
:1048300001F078FCD0B940F2213212A117A0FBF7A9
:104840009DFD13E00298A06128B94FF44E720DA1AE
:1048500012A0FBF793FDA0692B4641191A4620468A
:10486000FFF70AFF02E0204600F0EAFB00231A46A9
:1048700001A9306800F088FF0028A3D106B070BD00
:10488000E80000202E2E5C4672656552544F535C42
:1048900074696D6572732E63000000004572726F5B
:1048A000723A25732C25640D0A000000F8B50D46F8
:1048B000064600F047FE684600F03EF804460098C1
:1048C00010B101F049FBF8BD1148ADB101690968AB
:1048D000D9B10025311B2A46006800F067FC01F0C1
:1048E0003BFB0028EFD10B494FF080500860BFF32D
:1048F0004F8FBFF36F8FF8BDA642EBD801F02CFBB2
:1049000021463046FFF72AFFF8BD0125E2E7000007
:10491000E800002004ED00E00648416B096829B179
:10492000416BC968C9684968816270474FF0FF31BF
:10493000FAE70000AC00002070B5054601F0ECF984
:10494000064E0446B068844203D200F009F8012004
:1049500000E0002028602046B46070BDE800002020
:10496000F8B5184E26E0C068C4680568201D00F040
:10497000B3FA616A20468847E06901281AD1A06924
:104980002844A84206D924616060211DF06800F027
:10499000C4FA0FE000200346014600902A46204654
:1049A00001F0C0FB30B9084940F2923201F1180021
:1049B000FBF7E4FCF06801680029D4D13169C6E94D
:1049C0000310F8BDE800002088600008084840682F
:1049D000401C05D040F20F1206A111A0FBF7CEFC3F
:1049E000502080F31188BFF34F8FBFF36F8FFEE726
:1049F000FC0000202E2E5C4672656552544F535CBD
:104A0000706F727461626C655C525644535C4152C3
:104A10004D5F434D34465C706F72742E630000002E
:104A20004572726F723A25732C25640D0A000000DE
:104A3000084CE068016839B1002139B10020FFF766
:104A400035FFFFF7BBFEF4E70121F6E7C068006819
:104A5000F5E70000E80000202DE9F041044600F0F1
:104A600081FA94F9455004F1240610E0A06C20B1BD
:104A700000212046FFF72AFE04E0606A48B1304674
:104A800001F01EFA08B100F04FFC6D1E6DB2002D52
:104A9000ECDC4FF0FF3684F8456000F09FFA00F040
:104AA00061FA94F9445004F1100709E0206948B113
:104AB000384601F005FA08B100F036FC6D1E6DB203
:104AC000002DF3DC84F84460BDE8F04100F086BAC4
:104AD0002DE9F0410546002600F034FD324F3868DC
:104AE00008B9FFF707FDF86805424FD1002D4DD0FA
:104AF000083568070BD005F00700C0F10800054431
:104B0000680704D0BF2229A132A0FBF737FC002D93
:104B10003CD07868854239D823491031084604686A
:104B200001E0214604466068A84202D220680028BD
:104B3000F7D13868B846844228D00E6820680860EB
:104B400060680836401B10280ED96719780704D012
:104B5000EC2216A11FA0FBF711FC6068401B7860D7
:104B600038466560FFF762FD6168D8F80400424688
:104B7000401AC8F80400D8F80830984200D2906073
:104B8000D8F80C0001430020C4E9000101F0E4F969
:104B9000700705D04FF4967204A10EA0FBF7EEFB50
:104BA0003046BDE8F0810000080100202E2E5C4652
:104BB00072656552544F535C706F727461626C65BC
:104BC0005C4D656D4D616E675C686561705F342E2C
:104BD000630000004572726F723A25732C25640DD4
:104BE0000A0000000449086818B10868026D521CE8
:104BF0000265086870470000AC00002010B5031F74
:104C00004FF080741C601B1F21F001011960191FF7
:104C1000044B0B6014390A60091F6FF0020244381C
:104C20000A6010BDCD49000800B589B005A902A8E9
:104C3000FFF764F8032802D0012009B000BD6846E0
:104C4000FEF7C2FD9DED020A02A8F8EEC00A9DED36
:104C5000000A60EE800AFDEEE00ACDED020ADDED0D
:104C6000030AF8EEE00A60EE800AFDEEE00ACDED00
:104C7000030ADDED040AF8EEE00A20EE800ABDEE3C
:104C8000C00A8DED040AFEF70BF801A8FEF760FDDF
:104C9000BDF804000599414305910021069107994B
:104CA000414305A80791FDF75DFF0020C5E700001F
:104CB000F8B5134C0023224694F82460D2E9001280
:104CC0005D1E56B190B102200DE01078C97B6B4695
:104CD0000122FDF7A3F960B90DE0A67A4EB128B123
:104CE000607C58B901208DF80000EEE78DF80030A7
:104CF000EBE72846F8BD9DF8000060740020F8BD81
:104D00005C00002070B506460D4600240320FDF728
:104D1000E5FBFC20FDF7E2FB06E006EB8400042146
:104D2000FDF7E8FB641CE4B2AC42F6D3FC20FDF7CF
:104D3000D5FBBDE870400320FDF7D0BB1CB506498C
:104D40000120CDE9000100234FF4967203A106482B
:104D500000F0A8FF1CBD0000140000205354415275
:104D6000545F5441534B00006D4D00081CB500F0DA
:104D7000F9F810490320CDE900014FF40074002335
:104D800022460DA1104800F08DFF0A490220091D9E
:104D9000CDE90001002322460CA10F4800F082FF5C
:104DA0000448001F006800F059FABDE81C4000F0FC
:104DB00015B9000018000020436861737369735FC0
:104DC0007461736B0000000079160008436C6F7506
:104DD000645F7461736B0000ED16000810B54FF44A
:104DE0004070FDF779F9A820FDF72AFDFDF732F8AC
:104DF0000028FBD1FEF73CFC0028FBD14FF4E1304A
:104E000000F012F8002201210648FDF781FB002185
:104E10000120FBF7FFFD0021BDE810400220FBF759
:104E2000F9BE0000A08601002DE9F0418046012175
:104E300088B00846FDF7E6F90121C804FDF7EEF950
:104E4000234E082200213046FCF745FE08220121AE
:104E50003046FCF740FE02218DF814108DF8151035
:104E6000002403258DF81640012704958DF817704E
:104E700004A93046FCF7F3FDADF80440ADF8064058
:104E8000ADF80840ADF80C400C20124CADF80A000B
:104E9000CDF8008069462046FDF722FC012120461E
:104EA000FDF7D4FB012240F225512046FDF7FFFB20
:104EB00034208DF818008DF819508DF81A508DF89F
:104EC0001B7006A8FDF7D6F808B0BDE8F081000019
:104ED00000000240004C0040D0E9013201699A60B4
:104EE000D0E901235A604A68824201D182684A604F
:104EF000002202610868401E08607047704700F198
:104F000008014FF0FF32C0E90112C16001610021C8
:104F10000160704700210161704730B50C68621C68
:104F200002D000F1080202E0026904E01A46536868
:104F30001D68A542FAD953684B6099608A60516038
:104F400008610168491C016030BD42684A6093688D
:104F50008B6093685960916008610168491C016029
:104F600070470000502080F31188BFF34F8FBFF3CC
:104F70006F8F09494868401C486001280AD10748DA
:104F8000006810F0FF0F05D040F2B91204A10FA085
:104F9000FBF7F4B970470000FC00002004ED00E0CE
:104FA0002E2E5C4672656552544F535C706F72745E
:104FB00061626C655C525644535C41524D5F434D97
:104FC00034465C706F72742E630000004572726F1D
:104FD000723A25732C25640D0A00000010B5084CA8
:104FE000606828B94FF4E07206A111A0FBF7C6F97A
:104FF0006068401E606001D180F3118810BD000020
:10500000FC0000202E2E5C4672656552544F535CA6
:10501000706F727461626C655C525644535C4152AD
:105020004D5F434D34465C706F72742E6300000018
:105030004572726F723A25732C25640D0A000000C8
:1050400070B500282AD0164DA0F108046068E96800
:10505000084205D14FF4A07212A11CA0FBF78EF9F3
:10506000206828B140F241120EA118A0FBF786F982
:105070006068E968084211D02268002A0ED188438E
:10508000606000F05FFA6068696808446860204604
:10509000FFF7CCFABDE8704000F05EBF70BD0000C5
:1050A000080100202E2E5C4672656552544F535CF9
:1050B000706F727461626C655C4D656D4D616E6799
:1050C0005C686561705F342E630000004572726F2A
:1050D000723A25732C25640D0A00000006484FF42F
:1050E0007A710068B0FBF1F14FF0E020491E416198
:1050F00007210161704700000000002010B5FBF798
:10510000F3F8104C10280CD300F1E02090F8F003D5
:105110002178884205D24FF440720BA115A0FBF70D
:105120002DF918480068A16800F4E060884207D9AA
:10513000BDE810404FF4447203A10EA0FBF71EB966
:1051400010BD0000FC0000202E2E5C4672656552EA
:10515000544F535C706F727461626C655C5256445C
:10516000535C41524D5F434D34465C706F72742EF8
:10517000630000004572726F723A25732C25640D2E
:105180000A0000000CED00E010B5074B002253F8B8
:1051900032401CB1521C082AF9D310BD43F832101A
:1051A00003EBC201486010BDB405002070B5154680
:1051B0000E460446FFF7D6FE94F944100020491C21
:1051C00001D184F8440094F94510491C01D184F8B8
:1051D0004500FFF703FFA06B28B92A46314604F1CA
:1051E000240000F0D1F82046BDE87040FFF734BC41
:1051F00010B5040012D00E49096B29B140F2DC420F
:105200000CA111A0FBF7BAF800F09CF90021204690
:10521000FFF72AF800F0A0FE002807D10E494FF052
:1052200080500860BFF34F8FBFF36F8F10BD000039
:10523000AC0000202E2E5C4672656552544F535CC4
:105240007461736B732E63004572726F723A2573CB
:105250002C25640D0A00000004ED00E070B5044642
:10526000FFF780FE234D04B92C68201DFFF734FEA4
:1052700058B9E06A204A00EB800152F8211021B9A8
:1052800001218140286988432861A06A18B104F18E
:105290001800FFF721FE686A401C68622868844293
:1052A00007D1211D1548FFF750FE6868401C686053
:1052B00007E0A868401EA8602046FFF710F9FFF736
:1052C0002BFBFFF78BFE6869002812D02868844208
:1052D0000FD1286B28B140F2724209A10DA0FBF753
:1052E0004DF810494FF080500860BFF34F8FBFF367
:1052F0006F8F70BDAC000020F4050020B0080020C6
:105300002E2E5C4672656552544F535C7461736B0C
:10531000732E63004572726F723A25732C25640DEB
:105320000A00000004ED00E001490120C861704757
:10533000AC00002070B50D46040005D140F61332D4
:1053400007A10CA0FBF71AF80E4801682046183197
:10535000FFF7E3FD2846BDE870400121FEF784BF5A
:105360002E2E5C4672656552544F535C7461736BAC
:10537000732E63004572726F723A25732C25640D8B
:105380000A000000AC00002070B514460E4605006F
:1053900005D140F63E3209A10DA0FAF7EFFF104803
:1053A000016828461831FFF7D0FD0CB14FF0FF36E9
:1053B00021463046BDE87040FEF756BF2E2E5C46B3
:1053C00072656552544F535C7461736B732E630046
:1053D0004572726F723A25732C25640D0A00000025
:1053E000AC00002070B5040039D01D4DE06A29687A
:1053F000C96A884233D2A069002804DB2868C06AE1
:10540000C0F12000A061E06A164E00EB80006169E7
:1054100006EB800081421FD1201DFFF75DFD0121B9
:1054200050B9E06A00EB800256F8222022B92A69BE
:1054300001FA00F082432A612868C06AE0622A69A2
:1054400081401143296100EB800006EB8000211DA3
:10545000BDE87040FFF779BD2868C06AE06270BDA2
:10546000AC000020F405002010B5040005D140F682
:10547000CE3205A109A0FAF781FF0C48016A21602C
:10548000C068606010BD00002E2E5C4672656552DB
:10549000544F535C7461736B732E63004572726F6B
:1054A000723A25732C25640D0A000000AC00002020
:1054B0001CB517480024CDE900402346822215A1DF
:1054C000164800F0EFFB012803D100F0F1FD0128A0
:1054D0000AD0401C1BD102B040F29172BDE81040CE
:1054E0000FA114A0FAF74ABF502080F31188BFF330
:1054F0004F8FBFF36F8F06484FF0FF312C3881621A
:1055000001214161C460BDE81C4000F061B81CBDD0
:10551000D800002049444C450000000041450008E7
:105520002E2E5C4672656552544F535C7461736BEA
:10553000732E63004572726F723A25732C25640DC9
:105540000A0000000248016B491C0163704700001B
:10555000AC00002070B5134D286B10B10120E8613C
:1055600070BD0020E86128690F4EB0FA80F0C0F1EC
:105570001F0000EB800456F8240028B940F60332DF
:105580000AA10FA0FAF7FAFE06EB840000F1080268
:10559000416849684160914201D149684160C868E9
:1055A000286070BDAC000020F40500202E2E5C4663
:1055B00072656552544F535C7461736B732E630054
:1055C0004572726F723A25732C25640D0A00000033
:1055D0001CB5304C20683049884205D140F2591240
:1055E0002EA139A0FAF7CAFE20682B49491E88422D
:1055F00005D14FF4AD7229A133A0FAF7BFFE364CA6
:1056000020780190FF20207020788DF800009DF810
:1056100000009DF8001000F0F000884205D040F234
:1056200073121EA128A0FAF7A9FE9DF800002B4ACC
:1056300000F0500010700720906007E09068401E56
:1056400090609DF8000040008DF800009DF800007B
:105650000006F3D4107A000200F4E0609060019834
:1056600020700C482030016841F47001016001682D
:1056700041F070410160FFF731FD00205060FAF702
:10568000FBFD1748016841F040410160FAF7E4FD75
:1056900000201CBD00ED00E071C20F412E2E5C46C3
:1056A00072656552544F535C706F727461626C65C1
:1056B0005C525644535C41524D5F434D34465C70DE
:1056C0006F72742E630000004572726F723A257318
:1056D0002C25640D0A00000000E400E0FC0000201E
:1056E00034EF00E010B5502080F31188BFF34F8FE6
:1056F000BFF36F8F00F016FB18B104494FF08050D4
:105700000860002080F3118810BD000004ED00E067
:105710002DE9F04117460E46050005D14FF4C4723D
:1057200010A115A0FAF72AFEBEB105FB06F0543011
:10573000FFF7CEF904000ED004F154007EB12060D2
:10574000C4E90F562046012100F0E0F884F85070BB
:1057500000212046A164BDE8F0810020E7E7246035
:10576000EEE700002E2E5C4672656552544F535C86
:1057700071756575652E63004572726F723A257397
:105780002C25640D0A0000002DE9FF4F83B09B46D5
:105790008A4604004FF0000605D140F2DC4251A1D8
:1057A00055A0FAF7EBFDBAF1000F07D1206C28B134
:1057B00040F2DD424BA150A0FAF7E0FD00F09EFA66
:1057C00038B9059828B14FF49C6246A14AA0FAF76F
:1057D000D5FD4FF000094FF08057DFF82C81FFF71F
:1057E000C1FBA56B45B351462046E668FEF72EFE89
:1057F000BBF1000F13D0E660606A50B104F12400E1
:1058000000F05EFB28B1C8F80070BFF34F8FBFF304
:105810006F8FFFF7E3FB012007B0BDE8F08F6D1E2F
:10582000A563206810B9FFF7DDF9606020690028E2
:10583000EFD004F11000E3E7059808B11EB106E0CF
:10584000FFF7CCFB27E06846FFF70EFE0126FFF7C7
:10585000C5FBFFF777FEFFF785FB94F94400401C7A
:1058600001D184F8449094F94500401C01D184F89A
:105870004590FFF7B3FB05A9684600F0CFF9002873
:1058800020460AD0FFF7E8F800F066FB2046FEF756
:105890000FFF0028A3D00020BEE7FEF709FFD8B114
:1058A000206830B9FFF75EFB6068FFF79BFDFFF7EC
:1058B00095FB04F124000599FFF73CFD2046FFF716
:1058C000CBF800F049FB002889D1C8F80070BFF37D
:1058D0004F8FBFF36F8F82E72046FFF7BDF800F0D0
:1058E0003BFB7CE72E2E5C4672656552544F535C41
:1058F00071756575652E63004572726F723A257316
:105900002C25640D0A00000004ED00E070B50D4682
:10591000040005D140F21B121CA121A0FAF72EFDB4
:10592000FFF720FBD4E90F20216802FB0011616022
:105930000021A1632168A1600A46D4E90F01401E3D
:1059400000FB0121E16021464FF0FF3001F8440FD8
:10595000487004F110004DB1FFF7D1FA04F12400B2
:10596000FFF7CDFAFFF73AFB012070BD216900294E
:10597000F8D000F0A5FA0028F4D00D494FF080507F
:105980000860BFF34F8FBFF36F8FEBE72E2E5C469F
:1059900072656552544F535C71756575652E630071
:1059A0004572726F723A25732C25640D0A0000004F
:1059B00004ED00E02DE9FF4F83B099468B460400CB
:1059C0004FF0000605D140F2D92252A156A0FAF7B5
:1059D000D5FCBBF1000F07D1206C28B140F2DA22D0
:1059E0004CA151A0FAF7CAFCB9F1020F08D1E06B43
:1059F000012805D040F2DB2246A14BA0FAF7BEFCFD
:105A000000F07CF938B9059828B140F2DE2241A1B6
:105A100045A0FAF7B3FC4FF0000A4FF08057DFF8CB
:105A20001881FFF79FFAA06BE16B884206D3B9F1AA
:105A3000020F03D0059800B316B325E04A46594635
:105A40002046FEF716FDA16C21B149462046FEF71F
:105A50003DFE05E0616A19B104F1240000F030FA5E
:105A600028B1C8F80070BFF34F8FBFF36F8FFFF7F7
:105A7000B5FA012007B0BDE8F08FFFF7AFFA21E0DB
:105A80006846FFF7F1FC0126FFF7A8FAFFF75AFD79
:105A9000FFF768FA94F94400401C01D184F844A04F
:105AA00094F94500401C01D184F845A0FFF796FA0F
:105AB00005A9684600F0B2F830B12046FEF7CCFFE9
:105AC00000F04AFA0020D5E7FFF74CFAA06BE16B33
:105AD000884201D1012500E00025FFF77FFA95B14A
